:020000040800F2
:100000008007002079140008690600086B060008C4
:100010006F0600087306000877060008000000005D
:100020000000000000000000000000007B06000847
:100030007D060008000000007F0600088106000819
:1000400093140008931400089314000893140008F4
:100050009314000893140008931400081F07000865
:1000600083060008931400089314000893140008F2
:1000700093140008931400089314000893140008C4
:1000800093140008931400089314000893140008B4
:1000900093140008931400089314000893140008A4
:1000A0009314000893140008931400089314000894
:1000B0000308000893140008931400089314000820
:1000C0009314000893140008931400089314000874
:1000D000931400086B31000893140008931400086F
:1000E0009314000893140008931400089314000854
:1000F0009314000893140008931400089314000844
:100100009314000893140008931400089314000833
:100110009314000893140008931400089314000823
:100120009314000893140008931400089314000813
:1001300000F002F800F03AF80AA090E8000C8244BF
:100140008344AAF10107DA4501D100F02FF8AFF29C
:10015000090EBAE80F0013F0010F18BFFB1A43F0A5
:10016000010318470031000020310000103A24BF7D
:1001700078C878C1FAD8520724BF30C830C144BF0C
:1001800004680C607047000000230024002500264E
:10019000103A28BF78C1FBD8520728BF30C148BFEA
:1001A0000B6070471FB51FBD10B510BD03F027F8D9
:1001B0001146FFF7F7FF00F01BFA03F045F803B410
:1001C000FFF7F2FF03BC02F075FF000010B501213C
:1001D000F84801F07AFB0A2002F015FF0121F548EA
:1001E00001F075FB3C2002F032FF10BD2DE9F0411B
:1001F00004460D4616461F46DDF81880EE4880F886
:100200000080012D17D100F063FF04461CB9304671
:1002100000F0E5FD19E0022C03D1384600F00BFE9A
:1002200013E0012C03D1384600F022FE0DE000203F
:1002300000F0C4FD09E0322000F0DAFD4FF4FA705E
:1002400002F005FF012000F0B9FDBDE8F08170B5B6
:1002500004460D46012D1DD100F03AFF04461CB99D
:10026000282000F0BCFD23E0022C06D1322000F053
:10027000D7FD962002F0EBFE1AE0012C06D13220C9
:1002800000F0C3FD962002F0E2FE11E0012000F034
:1002900095FD0DE0322000F0ABFD4FF4FA7002F056
:1002A000D6FE322000F0B1FD4FF4FA7002F0CFFE1E
:1002B00070BD38B504460120C04908704FF42F7056
:1002C000BF4908600121BB4801F0FFFA0A2002F093
:1002D0009AFE0121B74801F0FAFA3C2002F0B7FE7D
:1002E000B848007840B928200346502201210090E8
:1002F0002046FFF77BFF7BE0012000F05FFD40F22E
:10030000E241B14802F01CFC0020AE4908704FF4F5
:100310007A7002F09CFE4FF46170A94908600121D7
:10032000A44801F0D2FA0A2002F06DFE0121A14892
:1003300001F0CDFA3C2002F08AFEA248007890B984
:10034000322000F062FD4FF4B97002F080FE01200F
:1003500000F034FD40F2EE219B4802F0F1FB00205A
:100360009849087040E0FA21974802F0E9FB002024
:10037000944908704FF47A7002F069FE01218D48AB
:1003800001F0A3FA0A2002F03EFE0121894801F0A3
:100390009EFA3C2002F05BFE8A48007890B9322039
:1003A00000F03EFD4FF4B97002F051FE012000F064
:1003B00005FD40F2EE21844802F0C2FB0020814995
:1003C000087011E0322000F02BFD4FF42F7002F086
:1003D0003EFE012000F0F2FC40F2EE217A4802F0ED
:1003E000AFFB0020774908704FF47A7002F02FFEBF
:1003F00038BD38B5044600F047FE012834D100204E
:100400006E49087002206F4908706F4802F0AAFB1D
:1004100040F2E241884206D06B4802F091FB4FF473
:100420007A7002F014FEFFF7D1FE664800780228C9
:1004300008D1282003465A22012100902046FFF7C8
:10044000D5FE81E05F480078012806D137205A495F
:1004500008705A2000F00CFD76E0372056490870ED
:100460005A2000F0E8FC6FE00120544908705A203F
:1004700051490870012000F0A1FC962002F0E7FD30
:10048000322000F0B5FC4FF4967002F0E0FD012040
:1004900000F094FC4C4802F065FB40F2E2418842D7
:1004A00006D0494802F04CFB4FF47A7002F0CFFDC1
:1004B000FFF78CFE4348007868B9322000F0A5FCB5
:1004C0004FF4B97002F0C3FD012000F077FC00206A
:1004D0003C49087038E0FA213B4802F031FB00202B
:1004E000384908704FF47A7002F0B1FDFFF76EFEE4
:1004F0003448007890B9322000F092FC4FF4B97083
:1005000002F0A5FD012000F059FC40F2E2412E4826
:1005100002F016FB00202B49087011E0322000F099
:100520007FFC4FF42F7002F092FD012000F046FC9A
:1005300040F2E241244802F003FB00202149087008
:100540004FF47A7002F083FD38BD10B5044600F018
:100550005CFF0446002C47D05A2C3FD008DC102CFE
:1005600034D0182C1DD0302C17D0382C3AD131E093
:10057000682C06D07A2C18D0982C06D0B02C31D10B
:1005800007E0502000F057FC2DE0642000F027FC2D
:1005900029E0502000F06CFC25E0502000F035FCF4
:1005A00021E0012000F00AFC1DE0502000F038FCA2
:1005B00019E0000000100140280000201000002079
:1005C0000C00002012000020000C0040502000F021
:1005D0006CFC08E0322000F00BFC04E0502000F03E
:1005E00085FC00E000BF02E00A2002F030FD10BDF3
:1005F00008B5002402F0EEFC02F056FD00F034FDD8
:1006000000F0A4FC00F04AFD00F076FD00F000FED2
:1006100000F0A6FE24E0002600251248007830B144
:1006200001280DD0022810D0032816D111E05A203D
:1006300050233222012100902846FFF7D7FD0DE01C
:1006400001212846FFF703FE08E02846FFF7D1FE08
:1006500004E02046FFF779FF00E000BF00BF00BFC5
:10066000D9E7000000000020704700BFFEE700BF90
:10067000FEE700BFFEE700BFFEE770477047704728
:10068000704710B5042000F0F9FF002846D002F0B2
:10069000A1FC0A2002F0DBFC0421BC4801F0FBF8BD
:1006A00058B3BB480078401CB94908700878C11796
:1006B00000EB91718910A0EB810119B90020B549B7
:1006C000087028E0B2490878C11700EB91718910D1
:1006D000A0EB8101012903D10120AE4908701AE085
:1006E000AB490878C11700EB91718910A0EB81012B
:1006F000022903D10220A74908700CE0A449087818
:10070000C11700EB91718910A0EB8101032902D17F
:100710000320A0490870042000F0C1FF10BD10B5EF
:10072000022000F0ABFF00285AD09B480078012837
:1007300024D10020994908700021994802F0FCF961
:100740000121974801F064FF00BF02218F4801F0AA
:10075000A2F80128F9D00021914801F059FF9048F2
:1007600002F00DFA8F490968884203D900208E49AA
:10077000087032E001208C4908702EE00020874983
:1007800008700021864802F0D7F90121844801F061
:100790003FFF00BF02217D4801F07DF80128F9D01C
:1007A00000217F4801F034FF7D4802F0E8F97F49DD
:1007B0000968884203D900207B4908700DE0784819
:1007C00002F0DDF97A490968884203D902207649A6
:1007D000087002E0012074490870022000F05FFFF9
:1007E00010BD10B501216E4802F0DBF940B10121C6
:1007F0006B4802F0E7F969480078401C67490870C7
:1008000010BD10B50121880702F0CBF9F8B1694895
:10081000007800F08000D0B16648007820F0100029
:10082000644908700846007800F00F0020B90846B7
:10083000007840F0400008705E48007800F00F003B
:100840000E2805DA5B480078401C5A4908700AE017
:100850005848007820F08000564908700846007813
:1008600000F0F00008700421080702F09AF900284F
:1008700013D00221504801F00EF878B10221480748
:1008800002F08AF800214FF0804002F055F9494803
:10089000007840F010004749087072E04FF0804047
:1008A00002F063F94549088000214FF0804002F0D2
:1008B00073F84048007800F0100000285BD03D48F5
:1008C000007800F08000E8B33C480088B0F5967FDF
:1008D0000DDD3A480088B0F5487F08DA38480068EE
:1008E00040003749086008460068086043E0334824
:1008F0000088B0F5AF6F0FDD30480088B0F5E16FCC
:100900000ADA2F48006840002D4908600846006850
:1009100040F0010008602EE02848008840F6980169
:10092000884228DD2548008840F62821884222DABE
:1009300024480078401C234908701E48007800F0C5
:10094000F00000E002E01B49087014E01B4800883A
:1009500041F2680188420EDD1848008841F25C21AE
:10096000884208DA1348007840F080001149087086
:100970000020144908700F48007820F010000D493D
:1009800008700521880702F009F910BD0010014028
:10099000290000200000002010000020110000208D
:1009A000002C01400C000020120000200800002054
:1009B000040000202C000020000801402E00002030
:1009C00030000020340000200CB500200190009081
:1009D0006C48006840F480306A49086000BF69488C
:1009E000006800F4003000900198401C01900098CD
:1009F00018B90198B0F5A06FF1D16248006800F411
:100A0000003010B10120009001E00020009000981B
:100A1000012843D15C48006840F010005A49086042
:100A20000846006820F0030008600846006840F0AF
:100A300002000860534840685249486008464068D0
:100A400048600846406840F4806048600846406856
:100A500020F47C1048600846406840F4E810486084
:100A60000846006840F08070086000BF4548006894
:100A700000F000700028F9D04248406820F00300E0
:100A8000404948600846406840F00200486000BFA6
:100A90003C48406800F00C000828F9D10CBD10B5A6
:100AA000FFF792FF10BD10B53648006840F0010016
:100AB0003449086008464068344908403149486074
:100AC00008460068324908402E4908600846006818
:100AD00020F4802008600846406820F4FE0048604A
:100AE0004FF41F008860FFF7DAFF4FF000602949DC
:100AF000086010BD10B5002100200022214B5B686A
:100B000003F00C0121B1042906D0082928D107E0FF
:100B1000214B224C236027E01F4B204C236023E015
:100B2000184B5B6803F47010164B5B6803F480325B
:100B3000022303EB904022B9194B4343174C236027
:100B40000DE0104B5B6803F4003323B1144B4343B7
:100B5000124C236003E0104B4343104C236003E02E
:100B60000D4B0E4C236000BF00BF064B5B68C3F308
:100B700003130C4CE15C094B1B68CB40074C236012
:100B800010BD000000100240002002400000FFF8ED
:100B9000FFFFF6FE08ED00E000127A0014000020CE
:100BA00000093D001800002010B50446E048006828
:100BB00020F07040DE4908600846006840F0405070
:100BC00008600020DB490860D948001D006820F05B
:100BD0000F00D749091D08600846006840F0090069
:100BE00008602146D44801F0AFFF10BD10B504469F
:100BF000CF48006820F07040CD4908600846006882
:100C000040F0405008600120CA490860C848001DF3
:100C1000006820F00F00C649091D086008460068FA
:100C200040F0090008602146C34801F08DFF10BD67
:100C3000F8B9BF49096821F07041BD4A11601146F9
:100C4000096841F0405111600021BA4A1160B84969
:100C5000091D096821F00F01B54A121D11601146E6
:100C6000096841F0030111600021B44AC2F8A011E3
:100C70001EE0AF49096821F07041AD4A116011468C
:100C8000096841F0405111600121AA4A1160A84948
:100C9000091D096821F00F01A54A121D11601146B6
:100CA000096841F0030111600121A44AC2F8A011B2
:100CB000704710B50446A248006820F47040A0496F
:100CC00008600846006840F44030086000209D49F4
:100CD00008609748001D006820F0F0009449091D45
:100CE00008600846006840F090000860214692487D
:100CF00001F02CFF10BD10B504468D48001D0068A2
:100D000020F0F0008A49091D08600846006840F09C
:100D1000900008602146884801F018FF8848006864
:100D200020F47040864908600846006840F440306E
:100D3000086001208349086010BDF8B9804909683E
:100D400021F470417E4A11601146096841F4403136
:100D5000116000217B4A11607549091D096821F065
:100D6000F001734A121D11601146096841F030010B
:100D700011600021714AC2F8A4111EE0704909688F
:100D800021F470416E4A11601146096841F4403106
:100D9000116001216B4A11606549091D096821F044
:100DA000F001634A121D11601146096841F03001DB
:100DB00011600121614AC2F8A411704700B50346D1
:100DC00033B90020FFF734FF0020FFF7B6FF05E03E
:100DD0000120FFF72DFF0120FFF7AFFF00BD10B589
:100DE00004462046FFF7E0FE2046FFF762FF10BDF5
:100DF00010B50446C4F16401C8B2FFF7F7FEC4F1B0
:100E00006401C8B2FFF777FF10BD10B50446C4F106
:100E10006401C8B2FFF7EAFE2046FFF74AFF10BDA3
:100E200010B504462046FFF7BFFEC4F16401C8B206
:100E3000FFF761FF10BD10B5044643480078201A43
:100E400009D441490978611AC8B2FFF7ADFE2046BE
:100E5000FFF72FFF0BE061423B4A12781144C1F1CA
:100E60006401C8B2FFF7C2FE2046FFF722FF10BDA3
:100E700010B5044634480078201A09D42046FFF7FC
:100E800093FE31490978611AC8B2FFF712FF0BE0EF
:100E90002046FFF789FE61422B4A12781144C1F1C6
:100EA0006401C8B2FFF727FF10BD10B504462648FD
:100EB0000078201A0DD424490978611AC1F164011F
:100EC000C8B2FFF793FEC4F16401C8B2FFF713FF85
:100ED0000BE061421C4A12781144C8B2FFF764FE6D
:100EE000C4F16401C8B2FFF706FF10BD10B5044697
:100EF00015480078201A0DD4C4F16401C8B2FFF778
:100F000075FE11490978611AC1F16401C8B2FFF791
:100F1000F2FE0BE0C4F16401C8B2FFF767FE614264
:100F2000094A12781144C8B2FFF7C3FE10BD000091
:100F3000000C01409C8121420008004000802142B9
:100F400000080140900121422800002000B589B02E
:100F500001210C2000F0C8FE1020ADF82000032075
:100F60008DF8220010208DF8230008A9394800F0E0
:100F7000FFFB8020ADF8200003208DF82200102018
:100F80008DF8230008A9344800F0F2FB0121042069
:100F900000F0B7FE0121092000F0A6FE4FF44070DA
:100FA000ADF8200018208DF8230003208DF82200D2
:100FB00008A9294800F0DCFB6320ADF8180040F2D6
:100FC000CF20ADF814000020ADF81A00ADF81600DF
:100FD00005A9224800F0C0FF6020ADF80400012000
:100FE000ADF806000020ADF80C00ADF80A0001A92C
:100FF0001A4801F07DF801A9184801F0C4F8154815
:10100000006820F47040134908600846006840F406
:10101000403008600020124908600F48006820F046
:1010200070400D4908600846006840F04050086074
:1010300000200C49C1F89C010821084801F02EFC51
:101040000821064801F033FC0121044801F0E0FAD0
:1010500009B000BD00080140000C0140000800403C
:10106000900121420080214208B50121092000F0B1
:101070003BFE0220ADF8000048208DF803006946D1
:10108000054800F075FB08BD0021034808300068E2
:10109000C0F3400001467047000C014008B5012133
:1010A0000C2000F021FE0120ADF8000048208DF852
:1010B000030069460E4800F05BFB8020ADF800009D
:1010C00048208DF8030069460A4800F051FB08BD2E
:1010D00010B500240121064800F0DDFB4006040E97
:1010E0008021044800F0D7FB2044C0B2044610BD64
:1010F000000C0140000801401FB50121112000F043
:10110000F3FD0420ADF80C0028208DF80F0003A992
:101110003C4800F02DFB0221084600F03FFC042073
:10112000019000208DF8080008208DF809000120AA
:101130008DF80A0001A800F03BFA08208DF80000A5
:1011400000208DF801008DF8020001208DF80300C9
:10115000684600F0B6F91FBD10B5044614B1012071
:101160002949087028480078002840D004212548E3
:1011700000F091FBA0B30A2001F069FF0020224992
:10118000087022490878C11700EB91718910A0EB13
:10119000810109B9002010BD1C490878C11700EB76
:1011A00091718910A0EB8101012901D10120F2E7A1
:1011B00016490878C11700EB91718910A0EB8101E5
:1011C000022901D10220E6E710490878C11700EB97
:1011D00091718910A0EB8101032902D10320DAE784
:1011E00005E00A480078401C0849087007E004211F
:1011F000044800F050FB10B10120034908700020A2
:10120000C9E70000001001402A000020290000204A
:1012100000B58BB00121082000F073FD012140F6DC
:10122000150000F061FD4CF24F30ADF81C00472076
:10123000ADF818000020ADF81E00ADF81A0006A9A0
:10124000434800F089FE18208DF8280001208DF811
:1012500029008DF82A008DF82B000AA800F031F93A
:10126000012211463A4801F0EEF90021384801F018
:10127000CFF90220ADF8240028208DF8270009A915
:10128000344800F075FA0121022000F087FB0220AB
:10129000009000208DF8040008208DF80500012042
:1012A0008DF80600684600F083F907208DF82800C5
:1012B00003208DF829008DF82A0001208DF82B00DD
:1012C0000AA800F0FEF80120ADF8240010208DF8E7
:1012D000270003208DF8260009A91E4800F048FACF
:1012E0000120ADF8240018208DF8270003208DF888
:1012F000260009A9184800F03BFA42F20F70ADF839
:101300001C008F20ADF818000020ADF81E00ADF8CD
:101310001A0006A9114800F01FFE6020ADF8080071
:101320000120ADF80A000020ADF8100040F2EE20D8
:10133000ADF80E0002A9094800F04BFE082107484D
:1013400001F096FA0121054801F062F90BB000BDE9
:10135000002C01400010014000080140000C00403A
:1013600000B589B00121084600F0CBFC0121042022
:1013700000F0BAFC0220ADF8200028208DF82300F0
:1013800003208DF8220008A9374800F0F1F91C204D
:101390008DF81C0000208DF81D0001208DF81E0026
:1013A0008DF81F0007A800F08CF842F20F70ADF81E
:1013B00008004720ADF804000020ADF80A00ADF8A1
:1013C000060001A94FF0804000F0C6FD0420ADF8F2
:1013D00010000020ADF812000120ADF8140000202C
:1013E000ADF816000320ADF8180004A94FF08040B6
:1013F00001F045F80121880701F00AF901220521D1
:10140000880701F020F909B000BD10B50020174B86
:101410001B7803F040032BB3154B1B68190E144BBC
:101420001B68C3F30742D343DBB28B420BD151B9E4
:101430000F4B1B88C3F307210D4B1A78D343DBB244
:101440008B4200D1084620B1084B1B7803F0800383
:1014500043B9064B1B7823F04003044C2370002350
:10146000044C237010BD0000000801402C00002037
:101470003000002034000020094880470948004718
:10148000FEE7FEE7FEE7FEE7FEE7FEE7FEE7FEE734
:10149000FEE7FEE704480549054A064B7047000091
:1014A000A70A000831010008800100208007002001
:1014B000800300208003002031490143314A11603C
:1014C000704770B5002100230F22C47804B32D4C5F
:1014D000246804F4E064C4F5E064210AC1F1040363
:1014E000CA40447804FA03F1847814402143090186
:1014F000254C0678A155047804F01F050124AC4062
:1015000005786D11AD0005F1E025C5F8004109E051
:10151000047804F01F050124AC401C4D06787611B8
:1015200045F8264070BD1A4A0A400243154B1B1F5E
:101530001A60704739B1134A121D12680243114BE9
:101540001B1D1A6006E00F4A121D126882430D4BE4
:101550001B1D1A607047042808D14FF0E02109696B
:1015600041F004014FF0E022116107E04FF0E0216B
:10157000096921F004014FF0E02211617047000079
:101580000000FA050CED00E000E400E080E100E07E
:1015900080FFFF1F002044490860091D0860091DE5
:1015A0000860091D086041483F49143108607047D0
:1015B00000213D498279002A3AD00A461268036820
:1015C0009A430B461A600A1D126803689A430B1D62
:1015D0001A60027911440A6803681A430A60324AA1
:1015E0000832126803689A432F4B08331A601A1D99
:1015F000126803689A432C4B0C331A604279102A04
:101600000ED11A1F126803681A43274B08331A6059
:101610001A1D126803681A43234B0C331A600DE03D
:101620002149427911440A6803681A430A6005E0B7
:10163000027911440A6803689A430A6070470021DE
:10164000016001710C2141710021817170471649BF
:10165000103109680143144A103211607047014685
:101660000020114A143212680A400AB1012000E039
:10167000002070470C491431086070470146002073
:101680000022094B1B6803EA0102074B14331B6855
:101690000B4013B10AB1012000E00020704702495D
:1016A000143108607047000000040140FFFF0F0084
:1016B00010B50446CC48844208D10121042000F032
:1016C0002DFB0021042000F029FB46E0C74884429E
:1016D00008D10121082000F021FB0021082000F0A2
:1016E0001DFB3AE0C248844208D10121102000F0DD
:1016F00015FB0021102000F011FB2EE0BD488442B4
:1017000008D10121202000F009FB0021202000F059
:1017100005FB22E0B848844208D10121402000F0B6
:10172000FDFA0021402000F0F9FA16E0B3488442A7
:1017300008D10121802000F0F1FA0021802000F082
:10174000EDFA0AE0AE48844207D10121801500F08D
:10175000E5FA0021A01500F0E1FA10BD10B5012155
:10176000084600F0DBFA0021012000F0D7FA10BD96
:101770002DE9F04102460025002600200023002428
:10178000002791F803C00CF00F0591F803C00CF08E
:10179000100CBCF1000F03D091F802C04CEA050513
:1017A00091F800C0BCF1000F31D0146800202BE08C
:1017B0004FF0010C0CFA00F3B1F800C00CEA03067C
:1017C0009E4220D183004FF00F0C0CFA03F7BC436C
:1017D00005FA03FC4CEA040491F803C0BCF1280F9D
:1017E00006D14FF0010C0CFA00FCC2F814C00AE05C
:1017F00091F803C0BCF1480F05D14FF0010C0CFA71
:1018000000FCC2F810C0401C0828D1D31460B1F805
:1018100000C0BCF1FF0F34DD546800202EE000F161
:10182000080C4FF0010808FA0CF3B1F800C00CEAFC
:1018300003069E4221D183004FF00F0C0CFA03F7F0
:10184000BC4305FA03FC4CEA040491F803C0BCF164
:10185000280F05D100F1080C08FA0CF8C2F8148022
:1018600091F803C0BCF1480F07D100F1080C4FF00C
:10187000010808FA0CF8C2F81080401C0828CED3E2
:101880005460BDE8F0814FF6FF7101800221817044
:101890000421C17070470246002093680B400BB1D1
:1018A000012000E0002070470146886880B2704740
:1018B00002460020D3680B400BB1012000E000205D
:1018C00070470146C86880B2704701617047416146
:1018D00070470AB1016100E041617047C160704723
:1018E0004FF480320A438261816182618269826938
:1018F000704702460020434B18684FF6807318402B
:1019000040EA021008433F4B186070473E49C861E7
:101910007047F0B50A46002300240021002500F09E
:101920000046B6F1004F02D1364EF16901E0354E66
:101930007168C0F3034583B200F44016B6F5401F4A
:1019400008D121F070612F4E766826F070662D4F19
:101950007E6012E000F48016B6F5801F06D10326E3
:1019600006FA05F4A14341F0706106E0460D360128
:1019700003FA06F6B14341F0706122B1460D36011B
:1019800003FA06F6314300F00046B6F1004F02D1EB
:101990001C4EF16101E01B4E7160F0BD30B50022BC
:1019A0008B071C0F0F2303FA04F2164B08338C101D
:1019B00053F824309343134C08348D1044F82530E9
:1019C00023468C1053F824308C07240F00FA04F4BB
:1019D00023430C4C08348D1044F8253030BD0A499F
:1019E000DC3108607047000000080140000C014035
:1019F000001001400014014000180140001C01408B
:101A0000002001400000014000002042DF48006843
:101A100040F00100DD49086008464068DC490840A4
:101A2000DA49486008460068DA490840D749086042
:101A30000846006820F4802008600846406820F4CA
:101A4000FE0048604FF41F0088607047CF49096866
:101A500021F48031CD4A11601146096821F48021BA
:101A60001160B0F5803F03D0B0F5802F0ED106E0B5
:101A7000C649096841F48031C44A116007E0C3498E
:101A8000096841F4A021C14A116000E000BF00BF15
:101A9000704710B501460022002300204A11012A98
:101AA00002D1BA4C236806E0022A02D1B74C236A5D
:101AB00001E0B64C636A01F01F02012494401C400F
:101AC0000CB1012000E0002010BD38B500200090CE
:101AD0000024002500BF3120FFF7DBFF05460098FA
:101AE000401C00900098B0F5A06F01D0002DF2D0FE
:101AF0003120FFF7CEFF08B1012400E0002420468A
:101B000038BD01460020A14A106820F0F80040EAE4
:101B1000C10010607047A04908607047024600206D
:101B20009A4B586820F47C1042EA01031843974B03
:101B30005860704798490866704701460020934AEC
:101B4000506820F003000843506070478F48406899
:101B500000F00C007047014600208C4A506820F0CD
:101B6000F00008435060704701460020874A5068E3
:101B700020F4E06008435060704701460020834A2B
:101B8000506820F4605040EAC1005060704729B1AD
:101B90007E4A527A02437D4B5A7204E07B4A527A63
:101BA00082437A4B5A7270477B49D831086070473C
:101BB00001460020754A506820F4404008435060B8
:101BC00070470021714A20321170704A82F820104B
:101BD000012802D004280AD104E001216B4A2032F6
:101BE000117005E00521694A2032117000E000BF44
:101BF00000BF70476949086070476449096A01433A
:101C0000624A11627047654944390860704730B5CF
:101C100000210022002400235C4D6D6805F00C01BA
:101C200021B1042905D0082923D105E05C4D0560C8
:101C300022E05B4D05601FE0544D6D6805F47012A5
:101C4000524D6D6805F48034022505EB92421CB9B3
:101C5000544D554305600BE04C4D6D6805F400355F
:101C60001DB1504D5543056002E04D4D5543056093
:101C700002E04B4D056000BF00BF444D6D6805F0AC
:101C8000F0010909484D6B5C0568DD4045603F4D3A
:101C90006D6805F4E061090A434D6B5C4568DD4001
:101CA00085603A4D6D6805F46051C90A3E4D6B5C24
:101CB0004568DD40C560354D6D6805F44041890BD0
:101CC0003A4D6B5CC568B5FBF3F5056130BD29B1D4
:101CD0002E4A526902432D4B5A6104E02B4A526945
:101CE00082432A4B5A61704729B1284A92690243BC
:101CF000264B9A6104E0254A92698243234B9A61FC
:101D0000704729B1214AD2690243204BDA6104E0CD
:101D10001E4AD26982431D4BDA61704729B11B4AC2
:101D2000D2680243194BDA6004E0184AD268824351
:101D3000164BDA60704729B1144A12690243134BFB
:101D40001A6104E0114A12698243104B1A6170470C
:101D500012494039086070470F49C86470470B4901
:101D6000C87170470948406A40F08070074948626E
:101D7000704701460020054A92680A400AB10120D6
:101D800000E000207047014988727047001002404F
:101D90000000FFF8FFFFF6FE0000424280044242CE
:101DA00000127A0000093D003500002045000020A7
:101DB00010B50446FE48844208D10121C014FFF743
:101DC000ADFF0021E014FFF7A9FFC4E0B4F1804F9C
:101DD00008D101210846FFF7AEFF00210120FFF7DF
:101DE000AAFFB8E0F348844208D101210220FFF79E
:101DF000A2FF00210220FFF79EFFACE0EE488442E4
:101E000008D101210420FFF796FF00210420FFF7ED
:101E100092FFA0E0E948844208D101210820FFF7A1
:101E20008AFF00210820FFF786FF94E0E4488442FF
:101E300008D101211020FFF77EFF00211020FFF7BD
:101E40007AFF88E0DF48844208D101212020FFF793
:101E500072FF00212020FFF76EFF7CE0DA48844209
:101E600008D101214014FFF759FF00216014FFF74A
:101E700055FF70E0D548844209D10121C804FFF71D
:101E80004DFF00214FF40020FFF748FF63E0D048EA
:101E9000844209D101210805FFF740FF00214FF4DA
:101EA0008010FFF73BFF56E0CA48844209D1012168
:101EB0004805FFF733FF00214FF40010FFF72EFF16
:101EC00049E0C548844208D101214020FFF733FF93
:101ED00000214020FFF72FFF3DE0C048844208D199
:101EE00001218020FFF727FF00218020FFF723FF3B
:101EF00031E0BB48844208D101218015FFF71BFF68
:101F00000021A015FFF717FF25E0B648844209D14C
:101F100001210804FFF702FF00214FF48030FFF792
:101F2000FDFE18E0B048844209D101214804FFF7C2
:101F3000F5FE00214FF40030FFF7F0FE0BE0AB4858
:101F4000844208D101218804FFF7E8FE00214FF404
:101F50008020FFF7E3FE10BD00220288944B9842D8
:101F60000ED0994B98420BD0B0F1804F08D0914BD6
:101F7000984205D0904B984202D0904B984204D1A1
:101F80004FF68F731A404B881A438D4B984207D0F7
:101F90008C4B984204D04FF6FF431A40CB881A432B
:101FA00002808B8883850B880385814B98420BD0F8
:101FB000854B984208D08B4B984205D08A4B98426B
:101FC00002D08A4B984201D10B7A03860123838287
:101FD000704770B5002400220023058C4FF6FE7672
:101FE00035400584028C8388048B4FF68F752C4016
:101FF000B51E2C400D882C43751E2A400D892A439E
:102000004D882A436A4DA8420BD06F4DA84208D094
:10201000744DA84205D0744DA84202D0734DA84219
:1020200013D14FF6F7752A404D892A434FF6FB75B9
:102030002A408D882A434FF6FF652B404FF6FF5507
:102040002B408D892B43CD892B4383800483CD88FE
:102050008586028470BD70B5002400220023058CA3
:102060004FF6EF7635400584028C8388048B48F662
:10207000FF752C404FF6FF452C400D884FF6FF763C
:1020800006EA05252C434FF6DF752A400D8906EA3E
:1020900005152A434D8806EA05152A43444DA842F2
:1020A00002D0494DA8421DD14FF67F752A404D8977
:1020B0004FF6FF7606EA05152A434FF6BF752A400C
:1020C0008D8806EA05152A434FF6FF352B404FF25F
:1020D000FF752B408D8906EA85052B43CD8906EADD
:1020E00085052B4383800483CD880587028470BDDA
:1020F00070B5002400220023058C4FF6FF663540A2
:102100000584028C8388848B4FF68F752C404FF6A4
:10211000FC752C400D882C434FF6FF552A400D8945
:102120004FF6FF7606EA05252A434D8806EA05257F
:102130002A431F4DA84202D0234DA8421DD14FF281
:10214000FF752A404D894FF6FF7606EA05252A439A
:102150004FF6FF352A408D8806EA05252A434EF6BC
:10216000FF752B404DF6FF752B408D8906EA05154E
:102170002B43CD8906EA05152B4383808483CD88C4
:102180008587028470BD70B5002200230024058C71
:102190004EF6FF7635400584038C8488828B48F6A2
:1021A000FF752A404FF6FF452A400D8820E00000C9
:1021B000002C01400004004000080040000C0040DA
:1021C000001000400014004000340140004C014069
:1021D000005001400054014000180040001C004025
:1021E0000020004000400140004401400048014000
:1021F0004FF6FF7606EA05252A434DF6FF752B407C
:102200000D8906EA05352B434D8806EA05352B4333
:10221000FA4DA84202D0FA4DA84208D14BF6FF75FC
:102220002C408D894FF6FF7606EA85152C43848075
:102230008283CD88A0F84050038470BD828B4FF21A
:10224000FF331A408283828B4FF6FF7303EA012328
:102250001A4382837047F0B50C46154600220021D0
:102260000026078C4EF6FF7C07EA0C070784828B5A
:10227000018C4FF6FF7707EA043640F6FF473A40F5
:102280004FF6FF7707EA05273A434FF6FF7707EA4D
:1022900003373A43D94FB8420ED0D94FB8420BD08A
:1022A000B0F1804F08D0D74FB84205D0D64FB842D2
:1022B00002D0D64FB84206D14DF6FF77394046F4EA
:1022C0008057394305E047F6FF57394044F48057BB
:1022D000394382830184F0BD828B4FF6F3731A4039
:1022E0008283828B0A4382837047F0B50C46154681
:1022F000002200210026078C4FF6FF6C07EA0C072E
:102300000784828B018C4FF6FF7707EA04264FF68D
:102310000C773A404FF6FF7707EA03172F433A430B
:10232000B64FB8420ED0B64FB8420BD0B0F1804F86
:1023300008D0B44FB84205D0B34FB84202D0B34F23
:10234000B84206D14FF6FF57394046F480773943FB
:1023500005E04FF2FF57394044F4807739438283D8
:102360000184F0BD028B4FF2FF331A400283028BCF
:102370004FF6FF7303EA01231A4302837047F0B557
:102380000C461546002200210026078C4FF6EF7CF4
:1023900007EA0C070784028B018C4FF6FF7707EAE8
:1023A000041640F6FF473A404FF6FF7707EA033737
:1023B0003A434FF6FF7707EA05273A438F4FB84273
:1023C0000ED08F4FB8420BD0B0F1804F08D08D4F58
:1023D000B84205D08C4FB84202D08C4FB84206D1DB
:1023E0004FF6DF77394046F01007394305E04FF6E6
:1023F0005F77394044F01007394302830184F0BD10
:10240000028B4FF6F3731A400283028B0A43028356
:102410007047F0B50C46154600220021068C4FF699
:10242000FE773E400684028B018C4FF60C763240DC
:102430007E1C06EA03162E433243704EB0420ED085
:102440006F4EB0420BD0B0F1804F08D06D4EB0420D
:1024500005D06D4EB04202D06C4EB04206D14FF660
:10246000FD76314044F00106314305E04FF6F57644
:10247000314044F00106314302830184F0BD70B560
:1024800005460C465D4885420ED05D4885420BD01E
:10249000B5F1804F08D05B48854205D05A48854247
:1024A00002D05A48854200D100E000BF208850B9D0
:1024B0002389A28861882846FFF7ABFFE188284678
:1024C000FFF79EFF25E0208804280AD12389A288EF
:1024D00061882846FFF753FFE1882846FFF742FF4F
:1024E00017E0208808280AD12389A2886188284615
:1024F000FFF7FBFEE1882846FFF7EEFE09E023899F
:10250000A28861882846FFF7A6FEE1882846FFF7E3
:1025100095FE70BD2DE9F04105460C4600260127C9
:10252000608808B9022600E00026A088012801D1B1
:10253000022700E001272088A0B92389A2886188AA
:102540002846FFF766FFE1882846FFF759FF2389F1
:102550003A4631462846FFF712FFE1882846FFF742
:1025600001FF13E02389A28861882846FFF707FF4F
:10257000E1882846FFF7F6FE23893A463146284689
:10258000FFF747FFE1882846FFF73AFFBDE8F081F3
:102590000A884B881A438B881A43CB881A430B89C5
:1025A0001A434B891A438B891A43A0F84420704779
:1025B0004FF6FF71818000210180C180418001724E
:1025C00070470021018041808180C180018141816B
:1025D0008181C1817047002101804180012181807A
:1025E0000021C180018170470021018041808180EC
:1025F000C18001814181818170470000002C014030
:10260000003401400004004000080040000C00407D
:1026100021B1028842F00102028004E002884FF6F4
:10262000FE731A400280704731B1B0F8442042F482
:102630000042A0F8442005E0B0F84420C2F30E02A6
:10264000A0F8442070471AB183890B43838102E0CC
:1026500083898B43838170478182704741EA0203FB
:10266000A0F8483070471AB183890B43838102E098
:1026700083898B438381704701894FF6F87211403B
:10268000018170470A46002101894FF68F73194076
:1026900011430181704730B504460D462946204656
:1026A000FFF7F0FF208940F00700208130BD2DE9C1
:1026B000F04104460D4616461F46602D06D13B46A6
:1026C000012231462046FFF75AFE05E03B46012233
:1026D00031462046FFF79DFE29462046FFF7D2FFF0
:1026E000208940F007002081BDE8F08130B50C461C
:1026F00000210189C9B24FF6FF7505EA032515438C
:1027000025432943018130BD2DE9F04105460E46A0
:1027100017469846002443463A4631462846FFF776
:10272000E5FF2C894FF6F870044044F007044FF69B
:102730008F70044044F070042C81BDE8F081F0B546
:1027400004460D4616461F463B463246294620465D
:10275000FFF7CCFF208940F480402081F0BD018547
:10276000828270470A46002101884FF68F73194014
:10277000114301807047F0B50C4615461E460021F6
:10278000002200230189028B038C4FF6F877394031
:1027900021434FF6FC473A4040F201173A434FF6C7
:1027A000DD773B404FF6FF7707EA06172F433B43A1
:1027B000018102830384F0BD0A460021018B4FF69C
:1027C0008F7319401143018370470A460021018B22
:1027D00048F6FF7319404FF6FF7303EA02231943CB
:1027E000018370470A460021818B4FF68F73194091
:1027F0001143818370470A460021818B48F6FF739D
:1028000019404FF6FF7303EA02231943818370478F
:1028100021B1028842F08002028004E002884FF673
:102820007F731A400280704721B1828842F004020F
:10283000828004E082884FF6FB731A4082807047E2
:1028400021B1828842F00802828004E082884FF63B
:10285000F7731A408280704721B1828842F00102EA
:10286000828004E082884FF6FE731A4082807047AF
:102870000A460021018B4FF6F7731940114301837B
:1028800070470A460021018B4FF2FF7319404FF643
:10289000FF7303EA02231943018370470A460021AC
:1028A000818B4FF6F77319401143818370470A46B5
:1028B0000021818B4FF2FF7319404FF6FF7303EA3B
:1028C00002231943818370470A460021018B4FF68A
:1028D000FB7319401143018370470A460021018BA5
:1028E0004FF6FF3319404FF6FF7303EA02231943F3
:1028F000018370470A460021818B4FF6FB73194014
:102900001143818370470A460021818B4FF6FF33C4
:1029100019404FF6FF7303EA02231943818370477E
:102920000A460021018B4FF67F7319401143018342
:1029300070470A460021018BC1F30E014FF6FF7369
:1029400003EA02231943018370470A460021818B61
:102950004FF67F7319401143818370470A46002167
:10296000818BC1F30E014FF6FF7303EA0223194373
:10297000818370470A460021018C4FF6FD73194090
:102980001143018470470A460021018C4FF6F7730A
:1029900019401143018470470A460021018C4FF60B
:1029A000DF7319404FF6FF7303EA021319430184E2
:1029B00070470A460021018C4FF67F7319404FF68D
:1029C000FF7303EA02131943018470470A4600218A
:1029D000018C4FF6FF5319404FF6FF7303EA0223B1
:1029E0001943018470470A460021018C4FF2FF739E
:1029F00019404FF6FF7303EA02231943018470471D
:102A00000A460021018C4DF6FF7319404FF6FF7303
:102A100003EA023319430184704730B500230124CF
:102A20008C40A3B2048C9C430484048C02FA01F50C
:102A3000ADB22C43048430BD30B5002304248C4057
:102A4000A3B2048C9C430484048C02FA01F5ADB259
:102A50002C43048430BD70B5034600200024184682
:102A6000183001258D40ACB21D8CA5431D8409B1E1
:102A7000082909D100EB6100056825F070050560A3
:102A80000568154305600EE00D1FC5F34E0528448B
:102A9000056825F4E045056005684FF6FF7606EA0F
:102AA00002263543056070BD21B1028842F0020262
:102AB000028004E002884FF6FD731A4002807047DE
:102AC00021B1028842F00402028004E002884FF63D
:102AD000FB731A400280704721B1828842F0800265
:102AE000828004E082884FF67F731A4082807047AC
:102AF00002884FF6F7731A40028002880A43028068
:102B0000704782884FF68F731A40828082880A430A
:102B10008280704702894FF6F8731A400281028959
:102B20000A430281704702894FF67F731A4002817F
:102B300002890A430281704781847047818570470A
:102B4000818670470187704781877047A0F84010E1
:102B5000704702884FF6FF431A40028002880A43FA
:102B6000028070470146888E70470146088F704783
:102B70000146888F70470146B1F840007047014612
:102B8000888C70470146088D704702460020138AE2
:102B90000B400BB1012000E000207047CA430282C5
:102BA000704730B50246002000230024158A05EA4C
:102BB0000103958905EA010413B10CB1012000E07D
:102BC000002030BDCA4302827047000010B50446A1
:102BD000FB48844209D101218803FFF79FF80021B7
:102BE0004FF48040FFF79AF832E0F648844209D16A
:102BF00001214804FFF79FF800214FF40030FFF750
:102C00009AF825E0F048844209D101218804FFF7B1
:102C100092F800214FF48020FFF78DF818E0EB4880
:102C2000844209D10121C804FFF785F800214FF43F
:102C30000020FFF780F80BE0E548844208D101212D
:102C40000805FFF778F800214FF48010FFF773F8BC
:102C500010BD2DE9F04786B005460E460024A24679
:102C600000BFA1460027B08900B100BF2F462C8AC3
:102C70004CF6FF700440F08804432C82AC894EF679
:102C8000F3100440B0883189084371890843044334
:102C9000AC81AC8A4FF6FF400440B0890443AC825B
:102CA00001A8FEF7B4FFC648874202D1DDF810A0A4
:102CB00001E0DDF80CA0A88900F4004040B10AEB67
:102CC000CA0000EB0A1031684900B0FBF1F807E0D8
:102CD0000AEBCA0000EB0A1031688900B0FBF1F87A
:102CE0006420B8FBF0F004012009642101FB108985
:102CF000A88900F4004040B1322000EBC900B0FBCD
:102D0000F1F000F00700044308E0322000EB091066
:102D10006421B0FBF1F000F00F0004432C8106B0F9
:102D2000BDE8F0874FF41651016000218180C18019
:102D300001810C21418100218181704710B502463B
:102D40000020108A4FF2FF0318400B884C88234361
:102D50008C882343CC8823431843108210BD002164
:102D6000018041808180C180704721B1828942F415
:102D70000052828104E082894DF6FF731A408281FD
:102D80007047F0B50346002400260025002040F6D9
:102D90006A17B94200D100BF1846C1F3421401F0CE
:102DA0001F06012707FA06F5012C01D10C3004E0BB
:102DB000022C01D1103000E014301AB107682F4303
:102DC000076002E00768AF430760F0BD1AB1838A6D
:102DD0000B43838202E0838A8B4383827047028A9B
:102DE0004FF6F0731A400282028A0A430282704749
:102DF00082894FF2FF731A40828182890A4382815D
:102E0000704721B1828942F00202828104E0828906
:102E10004FF6FD731A4082817047028A4FF6DF73C6
:102E20001A400282028A0A430282704721B1028A52
:102E300042F48042028204E0028A4BF6FF731A4099
:102E400002827047C1F30802828070470146888879
:102E5000C0F308007047818941F00101818170470A
:102E6000028BD2B20283028B42EA012202837047B4
:102E7000028B02F47F420283028B0A430283704773
:102E800021B1828A42F02002828204E0828A4FF6D7
:102E9000DF731A408282704721B1828A42F01002A9
:102EA000828204E0828A4FF6EF731A408282704772
:102EB00021B1828A42F00802828204E0828A4FF6BF
:102EC000F7731A408282704721B1828942F400422E
:102ED000828103E08289C2F30E028281704721B1B0
:102EE000828A42F40062828204E0828A4FF2FF7397
:102EF0001A4082827047828A4FF6FB731A408282A0
:102F0000828A0A438282704721B1828A42F0020299
:102F1000828204E0828A4FF6FD731A4082827047F3
:102F200002460020B1F5007F00D100BF13880B409E
:102F30000BB1012000E00020704701F40072B2F5EF
:102F4000007F00D100BFCA430280704770B50246BF
:102F5000002400230025002040F66A16B14200D16B
:102F600000BFC1F3421501F01F03012606FA03F367
:102F7000012D02D19689334006E0022D02D1168A36
:102F8000334001E0968A33400C12012606FA04F41D
:102F90001688344013B10CB1012000E0002070BD50
:102FA00010B50022002340F66A14A14200D100BFF0
:102FB0000A1201249440A3B2DC43048010BD000037
:102FC000003801400044004000480040004C0040F0
:102FD0000050004010B56FF00400FEF7BCFA2E4818
:102FE00000682E49B0FBF1F02D49087008460078C2
:102FF00000EB4001C1EBC0104FF6FF7101EAC000C9
:103000002849088010BD0146254A12784A434FF0EE
:10301000E0235A6100229A611A46126942F00102C5
:103020001A6100BF4FF0E022106900F001021AB1EE
:1030300000F48032002AF5D04FF0E022126922F02D
:1030400001024FF0E0231A6100229A6170470146A5
:10305000144A12884A434FF0E0235A6100229A61D1
:103060001A46126942F001021A6100BF4FF0E022D5
:10307000106900F001021AB100F48032002AF5D084
:103080004FF0E022126922F001024FF0E0231A61B2
:1030900000229A61704700001400002000127A009C
:1030A0004A0000204C00002010B54FF4A060FEF74D
:1030B00003FA10BD014600BF704700BF494A12889D
:1030C00002F04002002AF9D0C2B2464B1B1D1A8002
:1030D000704710B586B00446012144F20400FEF7A3
:1030E00003FE4FF40070ADF8140003208DF81600B5
:1030F00018208DF8170005A93B48FEF739FB4FF45F
:103100008060ADF8140004208DF8170005A936483A
:10311000FEF72EFB25208DF8000003208DF801001E
:103120008DF8020001208DF803006846FEF7C9F90A
:1031300001940020ADF80800ADF80A00ADF80C00CD
:10314000ADF810000C20ADF80E0001A92548FFF7DE
:1031500080FD012240F225512248FFF712FE012195
:103160002048FFF702FE06B010BD10B540F2255111
:103170001C48FFF7EBFE10B31A48FFF767FEC4B216
:103180001A48008800F40040C8B91848008800F4C4
:10319000804060B10A2C03D000201449088020E050
:1031A0001248008840F400401049088019E00D2CB6
:1031B00006D10E48008840F480400C49088010E099
:1031C0000A480088C0F30D0009490C5407480088DC
:1031D000401C0649088008460088C72801DD0020F9
:1031E000088010BD00380140000801405400002054
:1031F0005800002070477047704770477047754609
:1032000000F02CF8AE4605006946534620F0070052
:10321000854618B020B5FEF73DF9BDE820404FF0D7
:1032200000064FF000074FF000084FF0000B21F0B0
:103230000701AC46ACE8C009ACE8C009ACE8C0097D
:10324000ACE8C0098D46704710B50446AFF3008066
:103250002046BDE81040FCF7B2BF000000487047B0
:1032600020010020843200080000002058000000E7
:103270006C010008DC32000858000020280700001C
:103280008801000800000000260200005203000030
:10329000520300000000000000A24A0400000000E9
:1032A0000000000001020304060708095A0001009B
:1032B0000000000000000000000000000001020308
:1032C00004010203040607080902040608000000BE
:0C32D000000000000000000000000000F2
:0400000508000131BD
:00000001FF
